:1000000000308A00B62800002230840083130008E4
:10001000031918280130F800F701F70B0D28F80B29
:100020000C284A30F700F70B13281628800B0A28F3
:10003000080086018615061E2428061A1D2814307D
:10004000A20004200A30A000861E2D28861A262829
:100050001430A20004200330A000061F3628061B1F
:100060002F281430A20004200230A000861F3F2851
:10007000861B38281430A20004200130A00086110D
:100080000615061E4A28061A43281430A20004202A
:100090000B30A000861E5328861A4C281430A2006C
:1000A00004200630A000061F5C28061B55281430CB
:1000B000A20004200530A000861F6528861B5E284C
:1000C0001430A20004200430A00006118614061E7D
:1000D0007028061A69281430A20004200C30A000F1
:1000E000861E7928861A72281430A200042009304E
:1000F000A000061F8228061B7B281430A2000420C3
:100100000830A000861F8B28861B84281430A2008C
:1001100004200730A00086100614061E9628061A32
:100120008F281430A20004200D30A000861E9F28C6
:10013000861A98281430A20004200F30A000061F51
:10014000A728061BA1281430A2000420A001861FA6
:10015000B028861BA9281430A20004200E30A0006D
:1001600006102008F8008A110A12EF28A001FF30BB
:10017000A10083161F149F141F159F1183131F3096
:100180008305091283129412A11221088316870095
:10019000831221162108831687008312A1112108DA
:1001A0008316870001308312940000308316940078
:1001B00083129001F80092000030831692001F1401
:1001C0009F141F159F1183121F10F03097059D0576
:1001D0008316860000308800831288011928780869
:0601E0008600EE2863001A
:02400E00393F38
:00000001FF
;PIC16F877
;CRC=EB2C  CREATED="04-May-20 15:41"
