:1000000000308A003C2800000A108A100A1182077A
:100010003F3406345B344F3466346D347D340734FA
:100020007F346F3428308400831300080319262896
:100030000130F800F701F70B1B28F80B1A284A309B
:10004000F700F70B21282428800B1828080029081E
:10005000F801280203182F282808F7003B28F70189
:100060000830AA00A80DF70D290877020318F70039
:10007000F80DAA0B32280800A001A101A201A301DA
:10008000A401A501A60183161F149F141F159F111B
:1000900083131F30830509128312941201309400D8
:1000A00000308316940083129001F8009200003013
:1000B000831692001F149F141F159F1183121F1087
:1000C000F03097059D050030831687008800831265
:1000D000A7012708323C031C9728880101308700BC
:1000E00020080420A80088000530A80012208801FC
:1000F0000230870021080420A80088000530A800ED
:10010000122088010430870022080420A8008800FB
:100110000530A80012208801083087002308042039
:10012000A80088000530A8001220A70A6928A40AA0
:100130002408A8003C30A90027207708A50025083E
:10014000A8000A30A90027207708A0002508A800E9
:100150000A30A90027207808A1002408A8003C3014
:10016000A90027207808A6002608A8000A30A900C0
:1001700027207708A2002608A8000A30A900272017
:0A0180007808A300682868286300CF
:02400E00393F38
:00000001FF
;PIC16F877
;CRC=BC13  CREATED="06-May-20 04:07"
